{
  "contractName": "Election",
  "abi": [
    {
      "inputs": [],
      "stateMutability": "nonpayable",
      "type": "constructor"
    },
    {
      "inputs": [
        {
          "internalType": "uint256",
          "name": "",
          "type": "uint256"
        }
      ],
      "name": "candidates",
      "outputs": [
        {
          "internalType": "uint256",
          "name": "id",
          "type": "uint256"
        },
        {
          "internalType": "string",
          "name": "name",
          "type": "string"
        },
        {
          "internalType": "string",
          "name": "party",
          "type": "string"
        },
        {
          "internalType": "uint256",
          "name": "voteCount",
          "type": "uint256"
        }
      ],
      "stateMutability": "view",
      "type": "function",
      "constant": true
    },
    {
      "inputs": [],
      "name": "candidatesCount",
      "outputs": [
        {
          "internalType": "uint256",
          "name": "",
          "type": "uint256"
        }
      ],
      "stateMutability": "view",
      "type": "function",
      "constant": true
    },
    {
      "inputs": [
        {
          "internalType": "string",
          "name": "_name",
          "type": "string"
        },
        {
          "internalType": "string",
          "name": "_party",
          "type": "string"
        }
      ],
      "name": "addCandidate",
      "outputs": [],
      "stateMutability": "nonpayable",
      "type": "function"
    },
    {
      "inputs": [
        {
          "internalType": "uint256",
          "name": "_voterId",
          "type": "uint256"
        }
      ],
      "name": "registerVoter",
      "outputs": [],
      "stateMutability": "nonpayable",
      "type": "function"
    },
    {
      "inputs": [
        {
          "internalType": "uint256",
          "name": "_voterId",
          "type": "uint256"
        },
        {
          "internalType": "uint256",
          "name": "_candidateId",
          "type": "uint256"
        }
      ],
      "name": "vote",
      "outputs": [],
      "stateMutability": "nonpayable",
      "type": "function"
    },
    {
      "inputs": [],
      "name": "getVoterIds",
      "outputs": [
        {
          "internalType": "uint256[]",
          "name": "",
          "type": "uint256[]"
        }
      ],
      "stateMutability": "view",
      "type": "function",
      "constant": true
    },
    {
      "inputs": [],
      "name": "getCandidatesCount",
      "outputs": [
        {
          "internalType": "uint256",
          "name": "",
          "type": "uint256"
        }
      ],
      "stateMutability": "view",
      "type": "function",
      "constant": true
    },
    {
      "inputs": [
        {
          "internalType": "uint256",
          "name": "_candidateId",
          "type": "uint256"
        }
      ],
      "name": "getCandidate",
      "outputs": [
        {
          "internalType": "uint256",
          "name": "",
          "type": "uint256"
        },
        {
          "internalType": "string",
          "name": "",
          "type": "string"
        },
        {
          "internalType": "string",
          "name": "",
          "type": "string"
        },
        {
          "internalType": "uint256",
          "name": "",
          "type": "uint256"
        }
      ],
      "stateMutability": "view",
      "type": "function",
      "constant": true
    }
  ],
  "bytecode": "0x60806040523480156200001157600080fd5b506200008e6040518060400160405280600681526020017f52616e6a697400000000000000000000000000000000000000000000000000008152506040518060400160405280600881526020017f436f6e67726573730000000000000000000000000000000000000000000000008152506200018c60201b60201c565b6200010a6040518060400160405280600681526020017f53686172616e00000000000000000000000000000000000000000000000000008152506040518060400160405280600381526020017f426a7000000000000000000000000000000000000000000000000000000000008152506200018c60201b60201c565b620001866040518060400160405280600781526020017f73616e6a697468000000000000000000000000000000000000000000000000008152506040518060400160405280600381526020017f504d4b00000000000000000000000000000000000000000000000000000000008152506200018c60201b60201c565b620003d4565b60026000815480929190620001a19062000328565b91905055506040518060800160405280600254815260200183815260200182815260200160008152506001600060025481526020019081526020016000206000820151816000015560208201518160010190805190602001906200020792919062000238565b5060408201518160020190805190602001906200022692919062000238565b50606082015181600301559050505050565b8280546200024690620002f2565b90600052602060002090601f0160209004810192826200026a5760008555620002b6565b82601f106200028557805160ff1916838001178555620002b6565b82800160010185558215620002b6579182015b82811115620002b557825182559160200191906001019062000298565b5b509050620002c59190620002c9565b5090565b5b80821115620002e4576000816000905550600101620002ca565b5090565b6000819050919050565b600060028204905060018216806200030b57607f821691505b60208210811415620003225762000321620003a5565b5b50919050565b60006200033582620002e8565b91507fffffffffffffffffffffffffffffffffffffffffffffffffffffffffffffffff8214156200036b576200036a62000376565b5b600182019050919050565b7f4e487b7100000000000000000000000000000000000000000000000000000000600052601160045260246000fd5b7f4e487b7100000000000000000000000000000000000000000000000000000000600052602260045260246000fd5b6112cd80620003e46000396000f3fe608060405234801561001057600080fd5b50600436106100885760003560e01c8063a13f2f8d1161005b578063a13f2f8d1461012d578063b384abef14610149578063bb9aa28f14610165578063d64042a31461018357610088565b806326541b561461008d5780632d35a8a2146100a95780633477ee2e146100c757806335b8e820146100fa575b600080fd5b6100a760048036038101906100a29190610c0b565b6101a1565b005b6100b1610247565b6040516100be9190610ff7565b60405180910390f35b6100e160048036038101906100dc9190610c77565b61024d565b6040516100f19493929190611012565b60405180910390f35b610114600480360381019061010f9190610c77565b61038d565b6040516101249493929190611012565b60405180910390f35b61014760048036038101906101429190610c77565b610562565b005b610163600480360381019061015e9190610ca0565b6107f4565b005b61016d610a4a565b60405161017a9190610ff7565b60405180910390f35b61018b610a54565b6040516101989190610f35565b60405180910390f35b600260008154809291906101b490611199565b9190505550604051806080016040528060025481526020018381526020018281526020016000815250600160006002548152602001908152602001600020600082015181600001556020820151816001019080519060200190610218929190610aeb565b506040820151816002019080519060200190610235929190610aeb565b50606082015181600301559050505050565b60025481565b600160205280600052604060002060009150905080600001549080600101805461027690611167565b80601f01602080910402602001604051908101604052809291908181526020018280546102a290611167565b80156102ef5780601f106102c4576101008083540402835291602001916102ef565b820191906000526020600020905b8154815290600101906020018083116102d257829003601f168201915b50505050509080600201805461030490611167565b80601f016020809104026020016040519081016040528092919081815260200182805461033090611167565b801561037d5780601f106103525761010080835404028352916020019161037d565b820191906000526020600020905b81548152906001019060200180831161036057829003601f168201915b5050505050908060030154905084565b6000606080600080851180156103a557506002548511155b6103e4576040517f08c379a00000000000000000000000000000000000000000000000000000000081526004016103db90610fd7565b60405180910390fd5b6000600160008781526020019081526020016000206040518060800160405290816000820154815260200160018201805461041e90611167565b80601f016020809104026020016040519081016040528092919081815260200182805461044a90611167565b80156104975780601f1061046c57610100808354040283529160200191610497565b820191906000526020600020905b81548152906001019060200180831161047a57829003601f168201915b505050505081526020016002820180546104b090611167565b80601f01602080910402602001604051908101604052809291908181526020018280546104dc90611167565b80156105295780601f106104fe57610100808354040283529160200191610529565b820191906000526020600020905b81548152906001019060200180831161050c57829003601f168201915b50505050508152602001600382015481525050905080600001518160200151826040015183606001519450945094509450509193509193565b600081116105a5576040517f08c379a000000000000000000000000000000000000000000000000000000000815260040161059c90610f97565b60405180910390fd5b60008060003373ffffffffffffffffffffffffffffffffffffffff1673ffffffffffffffffffffffffffffffffffffffff16815260200190815260200160002060000180549050141561065f576000803373ffffffffffffffffffffffffffffffffffffffff1673ffffffffffffffffffffffffffffffffffffffff1681526020019081526020016000206000018190806001815401808255809150506001900390600052602060002001600090919091909150556107f1565b60005b6000803373ffffffffffffffffffffffffffffffffffffffff1673ffffffffffffffffffffffffffffffffffffffff1681526020019081526020016000206000018054905081101561078757816000803373ffffffffffffffffffffffffffffffffffffffff1673ffffffffffffffffffffffffffffffffffffffff1681526020019081526020016000206000018281548110610728577f4e487b7100000000000000000000000000000000000000000000000000000000600052603260045260246000fd5b90600052602060002001541415610774576040517f08c379a000000000000000000000000000000000000000000000000000000000815260040161076b90610f77565b60405180910390fd5b808061077f90611199565b915050610662565b506000803373ffffffffffffffffffffffffffffffffffffffff1673ffffffffffffffffffffffffffffffffffffffff1681526020019081526020016000206000018190806001815401808255809150506001900390600052602060002001600090919091909150555b50565b60008060003373ffffffffffffffffffffffffffffffffffffffff1673ffffffffffffffffffffffffffffffffffffffff168152602001908152602001600020600001805490501161087b576040517f08c379a000000000000000000000000000000000000000000000000000000000815260040161087290610fb7565b60405180910390fd5b600082116108be576040517f08c379a00000000000000000000000000000000000000000000000000000000081526004016108b590610f97565b60405180910390fd5b6000803373ffffffffffffffffffffffffffffffffffffffff1673ffffffffffffffffffffffffffffffffffffffff168152602001908152602001600020600101600083815260200190815260200160002060009054906101000a900460ff161561095e576040517f08c379a000000000000000000000000000000000000000000000000000000000815260040161095590610f57565b60405180910390fd5b60008111801561097057506002548111155b6109af576040517f08c379a00000000000000000000000000000000000000000000000000000000081526004016109a690610fd7565b60405180910390fd5b60016000803373ffffffffffffffffffffffffffffffffffffffff1673ffffffffffffffffffffffffffffffffffffffff168152602001908152602001600020600101600084815260200190815260200160002060006101000a81548160ff021916908315150217905550600160008281526020019081526020016000206003016000815480929190610a4190611199565b91905055505050565b6000600254905090565b60606000803373ffffffffffffffffffffffffffffffffffffffff1673ffffffffffffffffffffffffffffffffffffffff168152602001908152602001600020600001805480602002602001604051908101604052809291908181526020018280548015610ae157602002820191906000526020600020905b815481526020019060010190808311610acd575b5050505050905090565b828054610af790611167565b90600052602060002090601f016020900481019282610b195760008555610b60565b82601f10610b3257805160ff1916838001178555610b60565b82800160010185558215610b60579182015b82811115610b5f578251825591602001919060010190610b44565b5b509050610b6d9190610b71565b5090565b5b80821115610b8a576000816000905550600101610b72565b5090565b6000610ba1610b9c84611096565b611065565b905082815260208101848484011115610bb957600080fd5b610bc4848285611125565b509392505050565b600082601f830112610bdd57600080fd5b8135610bed848260208601610b8e565b91505092915050565b600081359050610c0581611280565b92915050565b60008060408385031215610c1e57600080fd5b600083013567ffffffffffffffff811115610c3857600080fd5b610c4485828601610bcc565b925050602083013567ffffffffffffffff811115610c6157600080fd5b610c6d85828601610bcc565b9150509250929050565b600060208284031215610c8957600080fd5b6000610c9784828501610bf6565b91505092915050565b60008060408385031215610cb357600080fd5b6000610cc185828601610bf6565b9250506020610cd285828601610bf6565b9150509250929050565b6000610ce88383610f17565b60208301905092915050565b6000610cff826110d6565b610d0981856110f9565b9350610d14836110c6565b8060005b83811015610d45578151610d2c8882610cdc565b9750610d37836110ec565b925050600181019050610d18565b5085935050505092915050565b6000610d5d826110e1565b610d67818561110a565b9350610d77818560208601611134565b610d808161126f565b840191505092915050565b6000610d98602a8361110a565b91507f596f75206861766520616c726561647920766f7465642077697468207468697360008301527f20766f7465722049442e000000000000000000000000000000000000000000006020830152604082019050919050565b6000610dfe602a8361110a565b91507f596f75206861766520616c72656164792072656769737465726564207468697360008301527f20766f7465722049442e000000000000000000000000000000000000000000006020830152604082019050919050565b6000610e6460118361110a565b91507f496e76616c696420766f7465722049442e0000000000000000000000000000006000830152602082019050919050565b6000610ea460178361110a565b91507f596f7520617265206e6f7420726567697374657265642e0000000000000000006000830152602082019050919050565b6000610ee460128361110a565b91507f496e76616c69642063616e6469646174652e00000000000000000000000000006000830152602082019050919050565b610f208161111b565b82525050565b610f2f8161111b565b82525050565b60006020820190508181036000830152610f4f8184610cf4565b905092915050565b60006020820190508181036000830152610f7081610d8b565b9050919050565b60006020820190508181036000830152610f9081610df1565b9050919050565b60006020820190508181036000830152610fb081610e57565b9050919050565b60006020820190508181036000830152610fd081610e97565b9050919050565b60006020820190508181036000830152610ff081610ed7565b9050919050565b600060208201905061100c6000830184610f26565b92915050565b60006080820190506110276000830187610f26565b81810360208301526110398186610d52565b9050818103604083015261104d8185610d52565b905061105c6060830184610f26565b95945050505050565b6000604051905081810181811067ffffffffffffffff8211171561108c5761108b611240565b5b8060405250919050565b600067ffffffffffffffff8211156110b1576110b0611240565b5b601f19601f8301169050602081019050919050565b6000819050602082019050919050565b600081519050919050565b600081519050919050565b6000602082019050919050565b600082825260208201905092915050565b600082825260208201905092915050565b6000819050919050565b82818337600083830152505050565b60005b83811015611152578082015181840152602081019050611137565b83811115611161576000848401525b50505050565b6000600282049050600182168061117f57607f821691505b6020821081141561119357611192611211565b5b50919050565b60006111a48261111b565b91507fffffffffffffffffffffffffffffffffffffffffffffffffffffffffffffffff8214156111d7576111d66111e2565b5b600182019050919050565b7f4e487b7100000000000000000000000000000000000000000000000000000000600052601160045260246000fd5b7f4e487b7100000000000000000000000000000000000000000000000000000000600052602260045260246000fd5b7f4e487b7100000000000000000000000000000000000000000000000000000000600052604160045260246000fd5b6000601f19601f8301169050919050565b6112898161111b565b811461129457600080fd5b5056fea26469706673582212202991e94dedb344b617bbba251679e293153784294f65fa96997b7456a8c6708f64736f6c63430008000033",
  "immutableReferences": {},
  "source": "// SPDX-License-Identifier: MIT\r\npragma solidity ^0.8.0;\r\n\r\ncontract Election {\r\n    // Model a Voter\r\n    struct Voter {\r\n        uint[] voterIds; // Store multiple voter IDs for each voter\r\n        mapping(uint => bool) hasVoted; // Track votes for each voter ID\r\n    }\r\n\r\n    // Store voters and their voter IDs\r\n    mapping(address => Voter) private voters;\r\n\r\n    // Model a Candidate\r\n    struct Candidate {\r\n        uint id;\r\n        string name;\r\n        string party; // Party name\r\n        uint voteCount;\r\n    }\r\n\r\n    // Store candidates\r\n    mapping(uint => Candidate) public candidates;\r\n    uint public candidatesCount;\r\n\r\n    // Constructor\r\n    constructor() {\r\n        addCandidate(\"Ranjit\", \"Congress\");\r\n        addCandidate(\"Sharan\", \"Bjp\");\r\n        addCandidate(\"sanjith\", \"PMK\");\r\n    }\r\n\r\n    // Add a candidate with name and party\r\n    function addCandidate(string memory _name, string memory _party) public {\r\n        candidatesCount++;\r\n        candidates[candidatesCount] = Candidate(candidatesCount, _name, _party, 0);\r\n    }\r\n\r\n    // Register a voter with a voter ID\r\n    function registerVoter(uint _voterId) public {\r\n        require(_voterId > 0, \"Invalid voter ID.\");\r\n\r\n        // If the voter has not registered yet, initialize their voter struct\r\n        if (voters[msg.sender].voterIds.length == 0) {\r\n            voters[msg.sender].voterIds.push(_voterId);\r\n        } else {\r\n            // Check if the voter ID is already registered for this address\r\n            for (uint i = 0; i < voters[msg.sender].voterIds.length; i++) {\r\n                require(voters[msg.sender].voterIds[i] != _voterId, \"You have already registered this voter ID.\");\r\n            }\r\n\r\n            // Add the new voter ID to the sender's list of voter IDs\r\n            voters[msg.sender].voterIds.push(_voterId);\r\n        }\r\n    }\r\n\r\n    // Vote for a candidate using a specific voter ID\r\n    function vote(uint _voterId, uint _candidateId) public {\r\n        require(voters[msg.sender].voterIds.length > 0, \"You are not registered.\");\r\n        require(_voterId > 0, \"Invalid voter ID.\");\r\n        require(!voters[msg.sender].hasVoted[_voterId], \"You have already voted with this voter ID.\");\r\n        require(_candidateId > 0 && _candidateId <= candidatesCount, \"Invalid candidate.\");\r\n\r\n        // Record that the sender has voted with the specified voter ID\r\n        voters[msg.sender].hasVoted[_voterId] = true;\r\n\r\n        // Update candidate vote count\r\n        candidates[_candidateId].voteCount++;\r\n    }\r\n\r\n    // Get the list of voter IDs for the sender\r\n    function getVoterIds() public view returns (uint[] memory) {\r\n        return voters[msg.sender].voterIds;\r\n    }\r\n\r\n    // Get the number of candidates\r\n    function getCandidatesCount() public view returns (uint) {\r\n        return candidatesCount;\r\n    }\r\n\r\n    // Get candidate information by ID\r\n    function getCandidate(uint _candidateId) public view returns (uint, string memory, string memory, uint) {\r\n        require(_candidateId > 0 && _candidateId <= candidatesCount, \"Invalid candidate.\");\r\n        Candidate memory candidate = candidates[_candidateId];\r\n        return (candidate.id, candidate.name, candidate.party, candidate.voteCount);\r\n    }\r\n}\r\n",
  "sourcePath": "D:\\votingapp\\contracts\\Election.sol",
  "compiler": {
    "name": "solc",
    "version": "0.8.0+commit.c7dfd78e.Emscripten.clang"
  },
  "schemaVersion": "3.4.16",
  "updatedAt": "2023-09-26T03:19:10.627Z",
  "networkType": "ethereum",
  "devdoc": {
    "kind": "dev",
    "methods": {},
    "version": 1
  },
  "userdoc": {
    "kind": "user",
    "methods": {},
    "version": 1
  }
}